{
  "contractName": "Blacklist",
  "abi": [
    {
      "constant": true,
      "inputs": [
        {
          "name": "",
          "type": "uint256"
        }
      ],
      "name": "phoneNumbers",
      "outputs": [
        {
          "name": "",
          "type": "bytes32"
        }
      ],
      "payable": false,
      "stateMutability": "view",
      "type": "function"
    },
    {
      "constant": true,
      "inputs": [],
      "name": "totalTokens",
      "outputs": [
        {
          "name": "",
          "type": "uint256"
        }
      ],
      "payable": false,
      "stateMutability": "view",
      "type": "function"
    },
    {
      "constant": true,
      "inputs": [],
      "name": "tokenPrice",
      "outputs": [
        {
          "name": "",
          "type": "uint256"
        }
      ],
      "payable": false,
      "stateMutability": "view",
      "type": "function"
    },
    {
      "constant": true,
      "inputs": [
        {
          "name": "",
          "type": "address"
        }
      ],
      "name": "memberInfo",
      "outputs": [
        {
          "name": "memberAddress",
          "type": "address"
        },
        {
          "name": "phoneNumber",
          "type": "bytes32"
        },
        {
          "name": "tokensBought",
          "type": "uint256"
        }
      ],
      "payable": false,
      "stateMutability": "view",
      "type": "function"
    },
    {
      "constant": true,
      "inputs": [],
      "name": "balanceTokens",
      "outputs": [
        {
          "name": "",
          "type": "uint256"
        }
      ],
      "payable": false,
      "stateMutability": "view",
      "type": "function"
    },
    {
      "inputs": [
        {
          "name": "tokens",
          "type": "uint256"
        },
        {
          "name": "pricePerToken",
          "type": "uint256"
        }
      ],
      "payable": false,
      "stateMutability": "nonpayable",
      "type": "constructor"
    },
    {
      "constant": false,
      "inputs": [
        {
          "name": "number",
          "type": "bytes32"
        },
        {
          "name": "latitude",
          "type": "string"
        },
        {
          "name": "longitude",
          "type": "string"
        },
        {
          "name": "platform",
          "type": "string"
        }
      ],
      "name": "addList",
      "outputs": [],
      "payable": false,
      "stateMutability": "nonpayable",
      "type": "function"
    },
    {
      "constant": true,
      "inputs": [
        {
          "name": "number",
          "type": "bytes32"
        }
      ],
      "name": "getCount",
      "outputs": [
        {
          "name": "",
          "type": "uint256"
        }
      ],
      "payable": false,
      "stateMutability": "view",
      "type": "function"
    },
    {
      "constant": true,
      "inputs": [
        {
          "name": "number",
          "type": "bytes32"
        }
      ],
      "name": "getLength",
      "outputs": [
        {
          "name": "",
          "type": "uint256"
        }
      ],
      "payable": false,
      "stateMutability": "view",
      "type": "function"
    },
    {
      "constant": true,
      "inputs": [
        {
          "name": "number",
          "type": "bytes32"
        },
        {
          "name": "index",
          "type": "uint256"
        }
      ],
      "name": "getInfo",
      "outputs": [
        {
          "name": "reporterAddress",
          "type": "address"
        },
        {
          "name": "latitude",
          "type": "string"
        },
        {
          "name": "longitude",
          "type": "string"
        },
        {
          "name": "platform",
          "type": "string"
        }
      ],
      "payable": false,
      "stateMutability": "view",
      "type": "function"
    },
    {
      "constant": false,
      "inputs": [],
      "name": "buy",
      "outputs": [
        {
          "name": "",
          "type": "uint256"
        }
      ],
      "payable": true,
      "stateMutability": "payable",
      "type": "function"
    },
    {
      "constant": true,
      "inputs": [],
      "name": "getSenderTokensBought",
      "outputs": [
        {
          "name": "",
          "type": "uint256"
        }
      ],
      "payable": false,
      "stateMutability": "view",
      "type": "function"
    },
    {
      "constant": true,
      "inputs": [],
      "name": "tokenSold",
      "outputs": [
        {
          "name": "",
          "type": "uint256"
        }
      ],
      "payable": false,
      "stateMutability": "view",
      "type": "function"
    },
    {
      "constant": false,
      "inputs": [
        {
          "name": "account",
          "type": "address"
        }
      ],
      "name": "transferTo",
      "outputs": [],
      "payable": false,
      "stateMutability": "nonpayable",
      "type": "function"
    },
    {
      "constant": false,
      "inputs": [
        {
          "name": "number",
          "type": "bytes32"
        },
        {
          "name": "tokens",
          "type": "uint256"
        }
      ],
      "name": "removeCount",
      "outputs": [],
      "payable": false,
      "stateMutability": "nonpayable",
      "type": "function"
    }
  ],
  "bytecode": "0x6060604052341561000f57600080fd5b6040516040806111ae8339810160405280805190602001909190805190602001909190505081600381905550816004819055508060058190555050506111548061005a6000396000f3006060604052600436106100d0576000357c0100000000000000000000000000000000000000000000000000000000900463ffffffff1680632d3601f0146100d5578063519ee19e146101145780636026c2d11461013d5780637037c644146102f15780637e1c0c091461031a5780637ff9b596146103435780639f9b26051461036c578063a03fa7e31461045c578063a313c37114610495578063a6f2ae3a14610524578063b22c4d4b14610542578063c9d6fee914610572578063e4494a0f146105ad578063fd82e9dd146105d6575b600080fd5b34156100e057600080fd5b6100f66004808035906020019091905050610611565b60405180826000191660001916815260200191505060405180910390f35b341561011f57600080fd5b610127610635565b6040518082815260200191505060405180910390f35b341561014857600080fd5b61016b600480803560001916906020019091908035906020019091905050610643565b604051808573ffffffffffffffffffffffffffffffffffffffff1673ffffffffffffffffffffffffffffffffffffffff168152602001806020018060200180602001848103845287818151815260200191508051906020019080838360005b838110156101e55780820151818401526020810190506101ca565b50505050905090810190601f1680156102125780820380516001836020036101000a031916815260200191505b50848103835286818151815260200191508051906020019080838360005b8381101561024b578082015181840152602081019050610230565b50505050905090810190601f1680156102785780820380516001836020036101000a031916815260200191505b50848103825285818151815260200191508051906020019080838360005b838110156102b1578082015181840152602081019050610296565b50505050905090810190601f1680156102de5780820380516001836020036101000a031916815260200191505b5097505050505050505060405180910390f35b34156102fc57600080fd5b610304610953565b6040518082815260200191505060405180910390f35b341561032557600080fd5b61032d61099c565b6040518082815260200191505060405180910390f35b341561034e57600080fd5b6103566109a2565b6040518082815260200191505060405180910390f35b341561037757600080fd5b61045a60048080356000191690602001909190803590602001908201803590602001908080601f0160208091040260200160405190810160405280939291908181526020018383808284378201915050505050509190803590602001908201803590602001908080601f0160208091040260200160405190810160405280939291908181526020018383808284378201915050505050509190803590602001908201803590602001908080601f016020809104026020016040519081016040528093929190818152602001838380828437820191505050505050919050506109a8565b005b341561046757600080fd5b610493600480803573ffffffffffffffffffffffffffffffffffffffff16906020019091905050610bc9565b005b34156104a057600080fd5b6104cc600480803573ffffffffffffffffffffffffffffffffffffffff16906020019091905050610c29565b604051808473ffffffffffffffffffffffffffffffffffffffff1673ffffffffffffffffffffffffffffffffffffffff1681526020018360001916600019168152602001828152602001935050505060405180910390f35b61052c610c73565b6040518082815260200191505060405180910390f35b341561054d57600080fd5b610570600480803560001916906020019091908035906020019091905050610d7d565b005b341561057d57600080fd5b610597600480803560001916906020019091905050610e70565b6040518082815260200191505060405180910390f35b34156105b857600080fd5b6105c0610e98565b6040518082815260200191505060405180910390f35b34156105e157600080fd5b6105fb600480803560001916906020019091905050610e9e565b6040518082815260200191505060405180910390f35b60028181548110151561062057fe5b90600052602060002090016000915090505481565b600060045460035403905090565b600061064d610ec9565b610655610ec9565b61065d610ec9565b6001600087600019166000191681526020019081526020016000206003018581548110151561068857fe5b906000526020600020906004020160000160009054906101000a900473ffffffffffffffffffffffffffffffffffffffff16600160008860001916600019168152602001908152602001600020600301868154811015156106e557fe5b90600052602060002090600402016001016001600089600019166000191681526020019081526020016000206003018781548110151561072157fe5b9060005260206000209060040201600201600160008a600019166000191681526020019081526020016000206003018881548110151561075d57fe5b9060005260206000209060040201600301828054600181600116156101000203166002900480601f0160208091040260200160405190810160405280929190818152602001828054600181600116156101000203166002900480156108035780601f106107d857610100808354040283529160200191610803565b820191906000526020600020905b8154815290600101906020018083116107e657829003601f168201915b50505050509250818054600181600116156101000203166002900480601f01602080910402602001604051908101604052809291908181526020018280546001816001161561010002031660029004801561089f5780601f106108745761010080835404028352916020019161089f565b820191906000526020600020905b81548152906001019060200180831161088257829003601f168201915b50505050509150808054600181600116156101000203166002900480601f01602080910402602001604051908101604052809291908181526020018280546001816001161561010002031660029004801561093b5780601f106109105761010080835404028352916020019161093b565b820191906000526020600020905b81548152906001019060200180831161091e57829003601f168201915b50505050509050935093509350935092959194509250565b60008060003373ffffffffffffffffffffffffffffffffffffffff1673ffffffffffffffffffffffffffffffffffffffff16815260200190815260200160002060020154905090565b60035481565b60055481565b6109b0610edd565b600060016000876000191660001916815260200190815260200160002060010160009054906101000a900460ff1660ff161415610a1757600280548060010182816109fb9190610f2e565b9160005260206000209001600087909190915090600019169055505b84600160008760001916600019168152602001908152602001600020600001816000191690555060018060008760001916600019168152602001908152602001600020600201600082825401925050819055506001806000876000191660001916815260200190815260200160002060010160006101000a81548160ff021916908360ff1602179055506080604051908101604052803373ffffffffffffffffffffffffffffffffffffffff1681526020018581526020018481526020018381525090506001600086600019166000191681526020019081526020016000206003018054806001018281610b0b9190610f5a565b9160005260206000209060040201600083909190915060008201518160000160006101000a81548173ffffffffffffffffffffffffffffffffffffffff021916908373ffffffffffffffffffffffffffffffffffffffff1602179055506020820151816001019080519060200190610b84929190610f8c565b506040820151816002019080519060200190610ba1929190610f8c565b506060820151816003019080519060200190610bbe929190610f8c565b505050505050505050565b60003090508173ffffffffffffffffffffffffffffffffffffffff166108fc8273ffffffffffffffffffffffffffffffffffffffff16319081150290604051600060405180830381858888f193505050501515610c2557600080fd5b5050565b60006020528060005260406000206000915090508060000160009054906101000a900473ffffffffffffffffffffffffffffffffffffffff16908060010154908060020154905083565b60008060055434811515610c8357fe5b0490506004548111151515610c9757600080fd5b336000803373ffffffffffffffffffffffffffffffffffffffff1673ffffffffffffffffffffffffffffffffffffffff16815260200190815260200160002060000160006101000a81548173ffffffffffffffffffffffffffffffffffffffff021916908373ffffffffffffffffffffffffffffffffffffffff160217905550806000803373ffffffffffffffffffffffffffffffffffffffff1673ffffffffffffffffffffffffffffffffffffffff16815260200190815260200160002060020160008282540192505081905550806004600082825403925050819055508091505090565b6000803373ffffffffffffffffffffffffffffffffffffffff1673ffffffffffffffffffffffffffffffffffffffff168152602001908152602001600020600201548111158015610dd65750610dd282610e70565b8111155b1515610de157600080fd5b806000803373ffffffffffffffffffffffffffffffffffffffff1673ffffffffffffffffffffffffffffffffffffffff168152602001908152602001600020600201600082825403925050819055508060046000828254019250508190555080600160008460001916600019168152602001908152602001600020600201600082825403925050819055505050565b6000600160008360001916600019168152602001908152602001600020600201549050919050565b60045481565b6000600160008360001916600019168152602001908152602001600020600301805490509050919050565b602060405190810160405280600081525090565b608060405190810160405280600073ffffffffffffffffffffffffffffffffffffffff168152602001610f0e61100c565b8152602001610f1b61100c565b8152602001610f2861100c565b81525090565b815481835581811511610f5557818360005260206000209182019101610f549190611020565b5b505050565b815481835581811511610f8757600402816004028360005260206000209182019101610f869190611045565b5b505050565b828054600181600116156101000203166002900490600052602060002090601f016020900481019282601f10610fcd57805160ff1916838001178555610ffb565b82800160010185558215610ffb579182015b82811115610ffa578251825591602001919060010190610fdf565b5b50905061100891906110bb565b5090565b602060405190810160405280600081525090565b61104291905b8082111561103e576000816000905550600101611026565b5090565b90565b6110b891905b808211156110b457600080820160006101000a81549073ffffffffffffffffffffffffffffffffffffffff021916905560018201600061108b91906110e0565b60028201600061109b91906110e0565b6003820160006110ab91906110e0565b5060040161104b565b5090565b90565b6110dd91905b808211156110d95760008160009055506001016110c1565b5090565b90565b50805460018160011615610100020316600290046000825580601f106111065750611125565b601f01602090049060005260206000209081019061112491906110bb565b5b505600a165627a7a7230582089afd4cad0fdac5107554b8df7e8ff7e2cdc1c997ceb717b5033dff759e9ce580029",
  "source": "pragma solidity ^0.4.18;\n\ncontract Blacklist {\n    struct Reporter {\n        address reporterAddress;\n        string latitude;\n        string longitude;\n        string platform;\n    }\n    \n    struct Info {\n        bytes32 phoneNum;\n        uint8 registered;\n        uint totalCount;\n        Reporter[] reporters;\n    }\n\n    struct Member {\n        address memberAddress;\n        bytes32 phoneNumber;\n        uint tokensBought;\n    }\n\n    mapping (address => Member) public memberInfo;\n\n    mapping (bytes32 => Info) private blacklistInfo;\n    bytes32[] public phoneNumbers;\n\n    uint public totalTokens;\n    uint public balanceTokens;\n    uint public tokenPrice;\n\n    function Blacklist(uint tokens, uint pricePerToken) public {\n        totalTokens = tokens;\n        balanceTokens = tokens;\n        tokenPrice = pricePerToken;\n    }\n\n    function addList(bytes32 number, string latitude, string longitude, string platform) public {\n        if(blacklistInfo[number].registered == 0) {\n            phoneNumbers.push(number);\n        }\n      \n        blacklistInfo[number].phoneNum = number;\n        blacklistInfo[number].totalCount += 1;\n        blacklistInfo[number].registered = 1;\n        Reporter memory reporter = Reporter(msg.sender, latitude, longitude, platform);\n        blacklistInfo[number].reporters.push(reporter);\n    }\n\n    function getCount(bytes32 number) view public returns (uint) {\n        return blacklistInfo[number].totalCount;\n    }\n\n    function getLength(bytes32 number) view public returns (uint) {\n        return blacklistInfo[number].reporters.length;\n    }\n\n    function getInfo(bytes32 number, uint index) view public returns (address reporterAddress, string latitude, string longitude, string platform) {\n        return (blacklistInfo[number].reporters[index].reporterAddress, \n        blacklistInfo[number].reporters[index].latitude, \n        blacklistInfo[number].reporters[index].longitude, \n        blacklistInfo[number].reporters[index].platform);\n    }\n\n    function buy() payable public returns (uint) {\n        uint tokensToBuy = msg.value / tokenPrice;\n        require(tokensToBuy <= balanceTokens);\n        memberInfo[msg.sender].memberAddress = msg.sender;\n        memberInfo[msg.sender].tokensBought += tokensToBuy;\n        balanceTokens -= tokensToBuy;\n        return tokensToBuy;\n    }\n\n    function getSenderTokensBought() view public returns (uint) {\n        return memberInfo[msg.sender].tokensBought;\n    }\n\n    function tokenSold() view public returns (uint) {\n        return totalTokens - balanceTokens;\n    }\n\n    function transferTo(address account) public {\n        address myAddress = this;\n        account.transfer(myAddress.balance);\n    }\n\n    function removeCount(bytes32 number, uint tokens) public {\n        // if(blacklistInfo[number].registered != 0)\n        require ((tokens <= memberInfo[msg.sender].tokensBought) && (tokens <= getCount(number)));\n        memberInfo[msg.sender].tokensBought -= tokens;\n        balanceTokens += tokens; \n        blacklistInfo[number].totalCount -= tokens;   \n    }\n}",
  "sourcePath": "/Users/flowkater/work/blockchain/blockfish/no-show-block/contracts/Blacklist.sol",
  "compiler": {
    "name": "solc",
    "version": "0.4.21+commit.dfe3193c.Emscripten.clang"
  },
  "schemaVersion": "2.0.0",
  "updatedAt": "2018-04-04T01:40:42.477Z"
}